S00F00006275696C642F612E7372656375
S31520000000008000208D000020A7000020A9000020ED
S31520000010AB000020AD000020AF0000200000000053
S31520000020000000000000000000000000B1000020D9
S31520000030B300002000000000B5000020B70000201B
S3152000004080B483B000AF786039607A683B68134427
S3152000005018460C37BD4680BC704798B500AF4FF4A4
S31520000060805301221A6041F208031B6841F20C02F8
S31520000070126841F2040411461846FFF7E1FF0346D1
S3152000008023604FF4805300221A60E8E70A480B49A0
S31520000090884205DA002240F8042B00F10400F7E735
S315200000A0FFF7DBFFFEE7FDE7FCE7FBE7FAE7F9E70B
S315200000B0F8E7F7E7F6E7F5E7C0000020C0000020E4
S7052000008D4D
