S00F00006275696C642F612E7372656375
S3150400000000C001208D000004B3000004B500000404
S31504000010B7000004B9000004BB000004000000009F
S31504000020000000000000000000000000BD00000405
S31504000030BF00000400000000C1000004C300000467
S3150400004080B483B000AF786039607A683B68134443
S3150400005018460C37BD4680BC704798B500AF4FF4C0
S31504000060805301221A6041F208031B6841F20C0214
S31504000070126841F2040411461846FFF7E1FF0346ED
S3150400008023604FF4805300221A60E8E70D480E49B6
S31504000090884203DA002240F8042BF9E70B480C499E
S315040000A0884203DA002240F8042BF9E7FFF7D5FF6C
S315040000B0FEE7FDE7FCE7FBE7FAE7F9E7F8E7F7E72A
S315040000C0F6E7F5E7D4000004D4000004D4000004E5
S309040000D0D40000044A
S7050400008D69
